{
  "contractName": "FunctionalDogsV2",
  "abi": [
    {
      "inputs": [],
      "stateMutability": "nonpayable",
      "type": "constructor"
    },
    {
      "inputs": [],
      "name": "_initialized",
      "outputs": [
        {
          "internalType": "bool",
          "name": "",
          "type": "bool"
        }
      ],
      "stateMutability": "view",
      "type": "function"
    },
    {
      "inputs": [],
      "name": "owner",
      "outputs": [
        {
          "internalType": "address",
          "name": "",
          "type": "address"
        }
      ],
      "stateMutability": "view",
      "type": "function"
    },
    {
      "inputs": [
        {
          "internalType": "address",
          "name": "_owner",
          "type": "address"
        }
      ],
      "name": "initialize",
      "outputs": [],
      "stateMutability": "nonpayable",
      "type": "function"
    },
    {
      "inputs": [],
      "name": "getNumberOfDogs",
      "outputs": [
        {
          "internalType": "uint256",
          "name": "",
          "type": "uint256"
        }
      ],
      "stateMutability": "view",
      "type": "function"
    },
    {
      "inputs": [
        {
          "internalType": "uint256",
          "name": "_toSet",
          "type": "uint256"
        }
      ],
      "name": "setNumberOfDogs",
      "outputs": [],
      "stateMutability": "nonpayable",
      "type": "function"
    }
  ],
  "bytecode": "0x608060405234801561001057600080fd5b506100203361002560201b60201c565b61016b565b600560149054906101000a900460ff1615610075576040517f08c379a000000000000000000000000000000000000000000000000000000000815260040161006c9061013a565b60405180910390fd5b80600560006101000a81548173ffffffffffffffffffffffffffffffffffffffff021916908373ffffffffffffffffffffffffffffffffffffffff1602179055506001600560146101000a81548160ff02191690831515021790555050565b60006100e1603b8361015a565b91507f436f6e74726163742068617320616c7265616479206265656e20696e6974696160008301527f6c697a65642c20756e61626c6520746f2063616c6c20616761696e00000000006020830152604082019050919050565b60006020820190508181036000830152610153816100d4565b9050919050565b600082825260208201905092915050565b6105aa8061017a6000396000f3fe608060405234801561001057600080fd5b50600436106100575760003560e01c806314861b221461005c5780631680a5ed146100785780633072cf60146100965780638da5cb5b146100b4578063c4d66de8146100d2575b600080fd5b61007660048036038101906100719190610300565b6100ee565b005b6100806101a2565b60405161008d91906104c7565b60405180910390f35b61009e6101c5565b6040516100ab919061046c565b60405180910390f35b6100bc6101d8565b6040516100c99190610451565b60405180910390f35b6100ec60048036038101906100e791906102d7565b6101fe565b005b600560009054906101000a900473ffffffffffffffffffffffffffffffffffffffff1673ffffffffffffffffffffffffffffffffffffffff163373ffffffffffffffffffffffffffffffffffffffff161461017e576040517f08c379a000000000000000000000000000000000000000000000000000000000815260040161017590610487565b60405180910390fd5b80600060405161018d9061043c565b90815260200160405180910390208190555050565b6000806040516101b19061043c565b908152602001604051809103902054905090565b600560149054906101000a900460ff1681565b600560009054906101000a900473ffffffffffffffffffffffffffffffffffffffff1681565b600560149054906101000a900460ff161561024e576040517f08c379a0000000000000000000000000000000000000000000000000000000008152600401610245906104a7565b60405180910390fd5b80600560006101000a81548173ffffffffffffffffffffffffffffffffffffffff021916908373ffffffffffffffffffffffffffffffffffffffff1602179055506001600560146101000a81548160ff02191690831515021790555050565b6000813590506102bc81610546565b92915050565b6000813590506102d18161055d565b92915050565b6000602082840312156102e957600080fd5b60006102f7848285016102ad565b91505092915050565b60006020828403121561031257600080fd5b6000610320848285016102c2565b91505092915050565b610332816104fe565b82525050565b61034181610510565b82525050565b60006103546016836104e2565b91507f596f7520617265206e6f7420746865206f776e657221000000000000000000006000830152602082019050919050565b6000610394603b836104e2565b91507f436f6e74726163742068617320616c7265616479206265656e20696e6974696160008301527f6c697a65642c20756e61626c6520746f2063616c6c20616761696e00000000006020830152604082019050919050565b60006103fa6004836104f3565b91507f446f6773000000000000000000000000000000000000000000000000000000006000830152600482019050919050565b6104368161053c565b82525050565b6000610447826103ed565b9150819050919050565b60006020820190506104666000830184610329565b92915050565b60006020820190506104816000830184610338565b92915050565b600060208201905081810360008301526104a081610347565b9050919050565b600060208201905081810360008301526104c081610387565b9050919050565b60006020820190506104dc600083018461042d565b92915050565b600082825260208201905092915050565b600081905092915050565b60006105098261051c565b9050919050565b60008115159050919050565b600073ffffffffffffffffffffffffffffffffffffffff82169050919050565b6000819050919050565b61054f816104fe565b811461055a57600080fd5b50565b6105668161053c565b811461057157600080fd5b5056fea2646970667358221220d35ba6042e0a086e88ab4a940e15021faed778de78ce56359f3705db98afe8b664736f6c63430008000033",
  "immutableReferences": {},
  "source": "// SPDX-License-Identifier: UNLICENSED\r\npragma solidity 0.8.0;\r\nimport \"./Storage.sol\";\r\n\r\n// no state variables here; all should be in Storage.sol!\r\ncontract FunctionalDogsV2 is Storage {\r\n    constructor() {\r\n        // owner = msg.sender;\r\n        initialize(msg.sender);\r\n    }\r\n\r\n    /*    initialize takes the arguments that are in the constructor (Hence, if we\r\n    have more arguements than owner, we should put it there too)\r\n    This solves the issue in the constructor function whereby it only exists\r\n    in the functional contract but not the proxy\r\n    initialize should also only be able to be called once\r\n    =================================================================\r\n    hence; initialize is called once when deploying function contract\r\n    and then, later, once deployed, we would have to call initialize again from\r\n    our proxy contract. So the reason why we have to call initialize again is that\r\n    when deploying this functional contract, the owner = msg.sender only in \r\n    this functional contract; but not in the proxy contract. Hence, we have to call\r\n    initialize in the proxy contract (after deploying in the migrations file) so\r\n    that owner is also = msg.sender in the proxy contract too; hence making both\r\n    contract have the same state again */\r\n    function initialize(address _owner) public {\r\n        // remember: there is a variable called _initialized defiend in Storage\r\n        // which defaults to false; hence, we can only use the function if _initalized is false\r\n        require(\r\n            !_initialized,\r\n            \"Contract has already been initialized, unable to call again\"\r\n        );\r\n        owner = _owner;\r\n        _initialized = true;\r\n    }\r\n\r\n    function getNumberOfDogs() public view returns (uint256) {\r\n        return _uintStorage[\"Dogs\"];\r\n    }\r\n\r\n    function setNumberOfDogs(uint256 _toSet) public onlyOwner {\r\n        _uintStorage[\"Dogs\"] = _toSet;\r\n    }\r\n\r\n    modifier onlyOwner() {\r\n        require(msg.sender == owner, \"You are not the owner!\");\r\n        _;\r\n    }\r\n}\r\n",
  "sourcePath": "C:\\Users\\Denli\\Desktop\\CodeGod\\Moralis\\Eth Smart Contract Security\\ProxyContract\\contracts\\FunctionalDogsV2.sol",
  "compiler": {
    "name": "solc",
    "version": "0.8.0+commit.c7dfd78e.Emscripten.clang"
  },
  "schemaVersion": "3.4.3",
  "updatedAt": "2022-05-26T05:36:36.811Z",
  "devdoc": {
    "kind": "dev",
    "methods": {},
    "version": 1
  },
  "userdoc": {
    "kind": "user",
    "methods": {},
    "version": 1
  }
}