{
  "contractName": "Proxy",
  "abi": [
    {
      "inputs": [
        {
          "internalType": "address",
          "name": "_functionalAddress",
          "type": "address"
        }
      ],
      "stateMutability": "nonpayable",
      "type": "constructor"
    },
    {
      "stateMutability": "payable",
      "type": "fallback"
    },
    {
      "inputs": [],
      "name": "_initialized",
      "outputs": [
        {
          "internalType": "bool",
          "name": "",
          "type": "bool"
        }
      ],
      "stateMutability": "view",
      "type": "function"
    },
    {
      "inputs": [],
      "name": "owner",
      "outputs": [
        {
          "internalType": "address",
          "name": "",
          "type": "address"
        }
      ],
      "stateMutability": "view",
      "type": "function"
    },
    {
      "inputs": [
        {
          "internalType": "address",
          "name": "_newAddress",
          "type": "address"
        }
      ],
      "name": "upgrade",
      "outputs": [],
      "stateMutability": "nonpayable",
      "type": "function"
    }
  ],
  "bytecode": "0x608060405234801561001057600080fd5b506040516104533803806104538339818101604052810190610032919061008e565b80600660006101000a81548173ffffffffffffffffffffffffffffffffffffffff021916908373ffffffffffffffffffffffffffffffffffffffff16021790555050610100565b600081519050610088816100e9565b92915050565b6000602082840312156100a057600080fd5b60006100ae84828501610079565b91505092915050565b60006100c2826100c9565b9050919050565b600073ffffffffffffffffffffffffffffffffffffffff82169050919050565b6100f2816100b7565b81146100fd57600080fd5b50565b6103448061010f6000396000f3fe6080604052600436106100385760003560e01c80630900f0101461012b5780633072cf60146101545780638da5cb5b1461017f57610039565b5b6000600660009054906101000a900473ffffffffffffffffffffffffffffffffffffffff169050600073ffffffffffffffffffffffffffffffffffffffff16600660009054906101000a900473ffffffffffffffffffffffffffffffffffffffff1673ffffffffffffffffffffffffffffffffffffffff1614156100bc57600080fd5b600080368080601f016020809104026020016040519081016040528093929190818152602001838380828437600081840152601f19601f820116905080830192505050505050509050600080825160208401855af43d604051816000823e8260008114610127578282f35b8282fd5b34801561013757600080fd5b50610152600480360381019061014d919061023c565b6101aa565b005b34801561016057600080fd5b506101696101ee565b604051610176919061029e565b60405180910390f35b34801561018b57600080fd5b50610194610201565b6040516101a19190610283565b60405180910390f35b80600660006101000a81548173ffffffffffffffffffffffffffffffffffffffff021916908373ffffffffffffffffffffffffffffffffffffffff16021790555050565b600560149054906101000a900460ff1681565b600560009054906101000a900473ffffffffffffffffffffffffffffffffffffffff1681565b600081359050610236816102f7565b92915050565b60006020828403121561024e57600080fd5b600061025c84828501610227565b91505092915050565b61026e816102b9565b82525050565b61027d816102cb565b82525050565b60006020820190506102986000830184610265565b92915050565b60006020820190506102b36000830184610274565b92915050565b60006102c4826102d7565b9050919050565b60008115159050919050565b600073ffffffffffffffffffffffffffffffffffffffff82169050919050565b610300816102b9565b811461030b57600080fd5b5056fea2646970667358221220a14852ebd8cece968277d7606ece8ff8ef5f137c756d9558c13f3aef57c80a7964736f6c63430008000033",
  "immutableReferences": {},
  "source": "// SPDX-License-Identifier: UNLICENSED\r\npragma solidity 0.8.0;\r\nimport \"./Storage.sol\";\r\n\r\ncontract Proxy is Storage {\r\n    // we can add more variables to Proxy (if necessary), but not to Functional.sol\r\n    address functionalAddress;\r\n\r\n    constructor(address _functionalAddress) {\r\n        functionalAddress = _functionalAddress;\r\n    }\r\n\r\n    function upgrade(address _newAddress) public {\r\n        functionalAddress = _newAddress;\r\n    }\r\n\r\n    /* this is the fallback function a fall back function is triggered if someone\r\n    sends a function call or a transaction to this contract AND there is no function\r\n    that corresponds to the name the callers is trying to execute \r\n    e.g. if someone tries to call HelloWorld() to this contract, which doesn't exist\r\n    in this contract, then the fallback function will be called. \r\n    In this case, the fallback function will redirect the call to the functional contract\r\n    Note: this is the standard fallback proxy function code; can just copy paste it*/\r\n    fallback() external payable {\r\n        address implementation = functionalAddress;\r\n        require(functionalAddress != address(0));\r\n        bytes memory data = msg.data; // msg.data is all info about the function call (called by the user)\r\n\r\n        assembly {\r\n            let result := delegatecall(\r\n                gas(),\r\n                implementation,\r\n                add(data, 0x20), // add is another assembly function; this changes the format to something that delegate call can read\r\n                mload(data), // mload is memory load\r\n                0,\r\n                0\r\n            )\r\n            let size := returndatasize()\r\n            let ptr := mload(0x40) // ptr as in pointer\r\n            returndatacopy(ptr, 0, size)\r\n            switch result // result will either be 0 (as in function call failed), or 1 (function call success)\r\n            case 0 {\r\n                revert(ptr, size)\r\n            } // revert if function call failed\r\n            default {\r\n                return(ptr, size)\r\n            } // default means \"else\"; else return\r\n        }\r\n    }\r\n}\r\n",
  "sourcePath": "C:\\Users\\Denli\\Desktop\\CodeGod\\Moralis\\Eth Smart Contract Security\\ProxyContract\\contracts\\Proxy.sol",
  "compiler": {
    "name": "solc",
    "version": "0.8.0+commit.c7dfd78e.Emscripten.clang"
  },
  "schemaVersion": "3.4.3",
  "updatedAt": "2022-05-26T05:36:36.817Z",
  "devdoc": {
    "kind": "dev",
    "methods": {},
    "version": 1
  },
  "userdoc": {
    "kind": "user",
    "methods": {},
    "version": 1
  }
}