{
  "contractName": "Storage",
  "abi": [
    {
      "inputs": [],
      "name": "_initialized",
      "outputs": [
        {
          "internalType": "bool",
          "name": "",
          "type": "bool"
        }
      ],
      "stateMutability": "view",
      "type": "function"
    },
    {
      "inputs": [],
      "name": "owner",
      "outputs": [
        {
          "internalType": "address",
          "name": "",
          "type": "address"
        }
      ],
      "stateMutability": "view",
      "type": "function"
    }
  ],
  "bytecode": "0x608060405234801561001057600080fd5b50610178806100206000396000f3fe608060405234801561001057600080fd5b50600436106100365760003560e01c80633072cf601461003b5780638da5cb5b14610059575b600080fd5b610043610077565b60405161005091906100e9565b60405180910390f35b61006161008a565b60405161006e91906100ce565b60405180910390f35b600560149054906101000a900460ff1681565b600560009054906101000a900473ffffffffffffffffffffffffffffffffffffffff1681565b6100b981610104565b82525050565b6100c881610116565b82525050565b60006020820190506100e360008301846100b0565b92915050565b60006020820190506100fe60008301846100bf565b92915050565b600061010f82610122565b9050919050565b60008115159050919050565b600073ffffffffffffffffffffffffffffffffffffffff8216905091905056fea2646970667358221220f8771cc012b89244ad630ca0032bbc41933980756f960715ba055e32d6655bbd64736f6c63430008000033",
  "immutableReferences": {},
  "source": "// SPDX-License-Identifier: UNLICENSED\r\npragma solidity 0.8.0;\r\n\r\ncontract Storage {\r\n    mapping(string => uint256) _uintStorage;\r\n    mapping(string => address) _addressStorage;\r\n    mapping(string => bool) _boolStorage;\r\n    mapping(string => string) _stringStorage;\r\n    mapping(string => bytes4) _bytesStorage;\r\n    address public owner;\r\n    bool public _initialized;\r\n}\r\n",
  "sourcePath": "C:\\Users\\Denli\\Desktop\\CodeGod\\Moralis\\Eth Smart Contract Security\\ProxyContract\\contracts\\Storage.sol",
  "compiler": {
    "name": "solc",
    "version": "0.8.0+commit.c7dfd78e.Emscripten.clang"
  },
  "schemaVersion": "3.4.3",
  "updatedAt": "2022-05-26T05:36:36.819Z",
  "devdoc": {
    "kind": "dev",
    "methods": {},
    "version": 1
  },
  "userdoc": {
    "kind": "user",
    "methods": {},
    "version": 1
  }
}